{
  "contractName": "MyTokenCapped",
  "abi": [
    {
      "inputs": [],
      "stateMutability": "nonpayable",
      "type": "constructor"
    },
    {
      "anonymous": false,
      "inputs": [
        {
          "indexed": true,
          "internalType": "address",
          "name": "owner",
          "type": "address"
        },
        {
          "indexed": true,
          "internalType": "address",
          "name": "spender",
          "type": "address"
        },
        {
          "indexed": false,
          "internalType": "uint256",
          "name": "value",
          "type": "uint256"
        }
      ],
      "name": "Approval",
      "type": "event"
    },
    {
      "anonymous": false,
      "inputs": [
        {
          "indexed": true,
          "internalType": "address",
          "name": "previousOwner",
          "type": "address"
        },
        {
          "indexed": true,
          "internalType": "address",
          "name": "newOwner",
          "type": "address"
        }
      ],
      "name": "OwnershipTransferred",
      "type": "event"
    },
    {
      "anonymous": false,
      "inputs": [
        {
          "indexed": true,
          "internalType": "address",
          "name": "from",
          "type": "address"
        },
        {
          "indexed": true,
          "internalType": "address",
          "name": "to",
          "type": "address"
        },
        {
          "indexed": false,
          "internalType": "uint256",
          "name": "value",
          "type": "uint256"
        }
      ],
      "name": "Transfer",
      "type": "event"
    },
    {
      "inputs": [
        {
          "internalType": "address",
          "name": "owner",
          "type": "address"
        },
        {
          "internalType": "address",
          "name": "spender",
          "type": "address"
        }
      ],
      "name": "allowance",
      "outputs": [
        {
          "internalType": "uint256",
          "name": "",
          "type": "uint256"
        }
      ],
      "stateMutability": "view",
      "type": "function",
      "constant": true
    },
    {
      "inputs": [
        {
          "internalType": "address",
          "name": "spender",
          "type": "address"
        },
        {
          "internalType": "uint256",
          "name": "amount",
          "type": "uint256"
        }
      ],
      "name": "approve",
      "outputs": [
        {
          "internalType": "bool",
          "name": "",
          "type": "bool"
        }
      ],
      "stateMutability": "nonpayable",
      "type": "function"
    },
    {
      "inputs": [
        {
          "internalType": "address",
          "name": "account",
          "type": "address"
        }
      ],
      "name": "balanceOf",
      "outputs": [
        {
          "internalType": "uint256",
          "name": "",
          "type": "uint256"
        }
      ],
      "stateMutability": "view",
      "type": "function",
      "constant": true
    },
    {
      "inputs": [],
      "name": "cap",
      "outputs": [
        {
          "internalType": "uint256",
          "name": "",
          "type": "uint256"
        }
      ],
      "stateMutability": "view",
      "type": "function",
      "constant": true
    },
    {
      "inputs": [],
      "name": "decimals",
      "outputs": [
        {
          "internalType": "uint8",
          "name": "",
          "type": "uint8"
        }
      ],
      "stateMutability": "view",
      "type": "function",
      "constant": true
    },
    {
      "inputs": [
        {
          "internalType": "address",
          "name": "spender",
          "type": "address"
        },
        {
          "internalType": "uint256",
          "name": "subtractedValue",
          "type": "uint256"
        }
      ],
      "name": "decreaseAllowance",
      "outputs": [
        {
          "internalType": "bool",
          "name": "",
          "type": "bool"
        }
      ],
      "stateMutability": "nonpayable",
      "type": "function"
    },
    {
      "inputs": [
        {
          "internalType": "address",
          "name": "spender",
          "type": "address"
        },
        {
          "internalType": "uint256",
          "name": "addedValue",
          "type": "uint256"
        }
      ],
      "name": "increaseAllowance",
      "outputs": [
        {
          "internalType": "bool",
          "name": "",
          "type": "bool"
        }
      ],
      "stateMutability": "nonpayable",
      "type": "function"
    },
    {
      "inputs": [],
      "name": "name",
      "outputs": [
        {
          "internalType": "string",
          "name": "",
          "type": "string"
        }
      ],
      "stateMutability": "view",
      "type": "function",
      "constant": true
    },
    {
      "inputs": [],
      "name": "owner",
      "outputs": [
        {
          "internalType": "address",
          "name": "",
          "type": "address"
        }
      ],
      "stateMutability": "view",
      "type": "function",
      "constant": true
    },
    {
      "inputs": [],
      "name": "renounceOwnership",
      "outputs": [],
      "stateMutability": "nonpayable",
      "type": "function"
    },
    {
      "inputs": [],
      "name": "symbol",
      "outputs": [
        {
          "internalType": "string",
          "name": "",
          "type": "string"
        }
      ],
      "stateMutability": "view",
      "type": "function",
      "constant": true
    },
    {
      "inputs": [],
      "name": "totalSupply",
      "outputs": [
        {
          "internalType": "uint256",
          "name": "",
          "type": "uint256"
        }
      ],
      "stateMutability": "view",
      "type": "function",
      "constant": true
    },
    {
      "inputs": [
        {
          "internalType": "address",
          "name": "to",
          "type": "address"
        },
        {
          "internalType": "uint256",
          "name": "amount",
          "type": "uint256"
        }
      ],
      "name": "transfer",
      "outputs": [
        {
          "internalType": "bool",
          "name": "",
          "type": "bool"
        }
      ],
      "stateMutability": "nonpayable",
      "type": "function"
    },
    {
      "inputs": [
        {
          "internalType": "address",
          "name": "from",
          "type": "address"
        },
        {
          "internalType": "address",
          "name": "to",
          "type": "address"
        },
        {
          "internalType": "uint256",
          "name": "amount",
          "type": "uint256"
        }
      ],
      "name": "transferFrom",
      "outputs": [
        {
          "internalType": "bool",
          "name": "",
          "type": "bool"
        }
      ],
      "stateMutability": "nonpayable",
      "type": "function"
    },
    {
      "inputs": [
        {
          "internalType": "address",
          "name": "newOwner",
          "type": "address"
        }
      ],
      "name": "transferOwnership",
      "outputs": [],
      "stateMutability": "nonpayable",
      "type": "function"
    },
    {
      "inputs": [
        {
          "internalType": "address",
          "name": "_address",
          "type": "address"
        },
        {
          "internalType": "uint256",
          "name": "_amount",
          "type": "uint256"
        }
      ],
      "name": "mintTokens",
      "outputs": [],
      "stateMutability": "nonpayable",
      "type": "function"
    }
  ],
  "bytecode": "0x60a06040523480156200001157600080fd5b506127106040518060400160405280600d81526020017f4d79546f6b656e436170706564000000000000000000000000000000000000008152506040518060400160405280600481526020017f4d544b4300000000000000000000000000000000000000000000000000000000815250816003908051906020019062000099929190620001f8565b508060049080519060200190620000b2929190620001f8565b50505060008111620000fb576040517f08c379a0000000000000000000000000000000000000000000000000000000008152600401620000f290620002ea565b60405180910390fd5b80608081815250505062000124620001186200012a60201b60201c565b6200013260201b60201c565b62000382565b600033905090565b6000600560009054906101000a900473ffffffffffffffffffffffffffffffffffffffff16905081600560006101000a81548173ffffffffffffffffffffffffffffffffffffffff021916908373ffffffffffffffffffffffffffffffffffffffff1602179055508173ffffffffffffffffffffffffffffffffffffffff168173ffffffffffffffffffffffffffffffffffffffff167f8be0079c531659141344cd1fd0a4f28419497f9722a3daafe3b4186f6b6457e060405160405180910390a35050565b82805462000206906200031d565b90600052602060002090601f0160209004810192826200022a576000855562000276565b82601f106200024557805160ff191683800117855562000276565b8280016001018555821562000276579182015b828111156200027557825182559160200191906001019062000258565b5b50905062000285919062000289565b5090565b5b80821115620002a45760008160009055506001016200028a565b5090565b6000620002b76015836200030c565b91507f45524332304361707065643a20636170206973203000000000000000000000006000830152602082019050919050565b600060208201905081810360008301526200030581620002a8565b9050919050565b600082825260208201905092915050565b600060028204905060018216806200033657607f821691505b602082108114156200034d576200034c62000353565b5b50919050565b7f4e487b7100000000000000000000000000000000000000000000000000000000600052602260045260246000fd5b608051611a766200039e60003960006104460152611a766000f3fe608060405234801561001057600080fd5b50600436106101005760003560e01c8063715018a611610097578063a9059cbb11610066578063a9059cbb146102b3578063dd62ed3e146102e3578063f0dda65c14610313578063f2fde38b1461032f57610100565b8063715018a61461023d5780638da5cb5b1461024757806395d89b4114610265578063a457c2d71461028357610100565b8063313ce567116100d3578063313ce567146101a1578063355274ea146101bf57806339509351146101dd57806370a082311461020d57610100565b806306fdde0314610105578063095ea7b31461012357806318160ddd1461015357806323b872dd14610171575b600080fd5b61010d61034b565b60405161011a91906116bf565b60405180910390f35b61013d6004803603810190610138919061120e565b6103dd565b60405161014a91906116a4565b60405180910390f35b61015b610400565b6040516101689190611841565b60405180910390f35b61018b600480360381019061018691906111bf565b61040a565b60405161019891906116a4565b60405180910390f35b6101a9610439565b6040516101b6919061185c565b60405180910390f35b6101c7610442565b6040516101d49190611841565b60405180910390f35b6101f760048036038101906101f2919061120e565b61046a565b60405161020491906116a4565b60405180910390f35b6102276004803603810190610222919061115a565b610514565b6040516102349190611841565b60405180910390f35b61024561055c565b005b61024f6105e4565b60405161025c9190611689565b60405180910390f35b61026d61060e565b60405161027a91906116bf565b60405180910390f35b61029d6004803603810190610298919061120e565b6106a0565b6040516102aa91906116a4565b60405180910390f35b6102cd60048036038101906102c8919061120e565b61078a565b6040516102da91906116a4565b60405180910390f35b6102fd60048036038101906102f89190611183565b6107ad565b60405161030a9190611841565b60405180910390f35b61032d6004803603810190610328919061120e565b610834565b005b6103496004803603810190610344919061115a565b6108be565b005b60606003805461035a90611971565b80601f016020809104026020016040519081016040528092919081815260200182805461038690611971565b80156103d35780601f106103a8576101008083540402835291602001916103d3565b820191906000526020600020905b8154815290600101906020018083116103b657829003601f168201915b5050505050905090565b6000806103e86109b6565b90506103f58185856109be565b600191505092915050565b6000600254905090565b6000806104156109b6565b9050610422858285610b89565b61042d858585610c15565b60019150509392505050565b60006012905090565b60007f0000000000000000000000000000000000000000000000000000000000000000905090565b6000806104756109b6565b9050610509818585600160008673ffffffffffffffffffffffffffffffffffffffff1673ffffffffffffffffffffffffffffffffffffffff16815260200190815260200160002060008973ffffffffffffffffffffffffffffffffffffffff1673ffffffffffffffffffffffffffffffffffffffff168152602001908152602001600020546105049190611893565b6109be565b600191505092915050565b60008060008373ffffffffffffffffffffffffffffffffffffffff1673ffffffffffffffffffffffffffffffffffffffff168152602001908152602001600020549050919050565b6105646109b6565b73ffffffffffffffffffffffffffffffffffffffff166105826105e4565b73ffffffffffffffffffffffffffffffffffffffff16146105d8576040517f08c379a00000000000000000000000000000000000000000000000000000000081526004016105cf90611781565b60405180910390fd5b6105e26000610e96565b565b6000600560009054906101000a900473ffffffffffffffffffffffffffffffffffffffff16905090565b60606004805461061d90611971565b80601f016020809104026020016040519081016040528092919081815260200182805461064990611971565b80156106965780601f1061066b57610100808354040283529160200191610696565b820191906000526020600020905b81548152906001019060200180831161067957829003601f168201915b5050505050905090565b6000806106ab6109b6565b90506000600160008373ffffffffffffffffffffffffffffffffffffffff1673ffffffffffffffffffffffffffffffffffffffff16815260200190815260200160002060008673ffffffffffffffffffffffffffffffffffffffff1673ffffffffffffffffffffffffffffffffffffffff16815260200190815260200160002054905083811015610771576040517f08c379a000000000000000000000000000000000000000000000000000000000815260040161076890611801565b60405180910390fd5b61077e82868684036109be565b60019250505092915050565b6000806107956109b6565b90506107a2818585610c15565b600191505092915050565b6000600160008473ffffffffffffffffffffffffffffffffffffffff1673ffffffffffffffffffffffffffffffffffffffff16815260200190815260200160002060008373ffffffffffffffffffffffffffffffffffffffff1673ffffffffffffffffffffffffffffffffffffffff16815260200190815260200160002054905092915050565b61083c6109b6565b73ffffffffffffffffffffffffffffffffffffffff1661085a6105e4565b73ffffffffffffffffffffffffffffffffffffffff16146108b0576040517f08c379a00000000000000000000000000000000000000000000000000000000081526004016108a790611781565b60405180910390fd5b6108ba8282610f5c565b5050565b6108c66109b6565b73ffffffffffffffffffffffffffffffffffffffff166108e46105e4565b73ffffffffffffffffffffffffffffffffffffffff161461093a576040517f08c379a000000000000000000000000000000000000000000000000000000000815260040161093190611781565b60405180910390fd5b600073ffffffffffffffffffffffffffffffffffffffff168173ffffffffffffffffffffffffffffffffffffffff1614156109aa576040517f08c379a00000000000000000000000000000000000000000000000000000000081526004016109a190611701565b60405180910390fd5b6109b381610e96565b50565b600033905090565b600073ffffffffffffffffffffffffffffffffffffffff168373ffffffffffffffffffffffffffffffffffffffff161415610a2e576040517f08c379a0000000000000000000000000000000000000000000000000000000008152600401610a25906117e1565b60405180910390fd5b600073ffffffffffffffffffffffffffffffffffffffff168273ffffffffffffffffffffffffffffffffffffffff161415610a9e576040517f08c379a0000000000000000000000000000000000000000000000000000000008152600401610a9590611721565b60405180910390fd5b80600160008573ffffffffffffffffffffffffffffffffffffffff1673ffffffffffffffffffffffffffffffffffffffff16815260200190815260200160002060008473ffffffffffffffffffffffffffffffffffffffff1673ffffffffffffffffffffffffffffffffffffffff168152602001908152602001600020819055508173ffffffffffffffffffffffffffffffffffffffff168373ffffffffffffffffffffffffffffffffffffffff167f8c5be1e5ebec7d5bd14f71427d1e84f3dd0314c0f7b2291e5b200ac8c7c3b92583604051610b7c9190611841565b60405180910390a3505050565b6000610b9584846107ad565b90507fffffffffffffffffffffffffffffffffffffffffffffffffffffffffffffffff8114610c0f5781811015610c01576040517f08c379a0000000000000000000000000000000000000000000000000000000008152600401610bf890611741565b60405180910390fd5b610c0e84848484036109be565b5b50505050565b600073ffffffffffffffffffffffffffffffffffffffff168373ffffffffffffffffffffffffffffffffffffffff161415610c85576040517f08c379a0000000000000000000000000000000000000000000000000000000008152600401610c7c906117a1565b60405180910390fd5b600073ffffffffffffffffffffffffffffffffffffffff168273ffffffffffffffffffffffffffffffffffffffff161415610cf5576040517f08c379a0000000000000000000000000000000000000000000000000000000008152600401610cec906116e1565b60405180910390fd5b610d00838383610fc6565b60008060008573ffffffffffffffffffffffffffffffffffffffff1673ffffffffffffffffffffffffffffffffffffffff16815260200190815260200160002054905081811015610d86576040517f08c379a0000000000000000000000000000000000000000000000000000000008152600401610d7d90611761565b60405180910390fd5b8181036000808673ffffffffffffffffffffffffffffffffffffffff1673ffffffffffffffffffffffffffffffffffffffff16815260200190815260200160002081905550816000808573ffffffffffffffffffffffffffffffffffffffff1673ffffffffffffffffffffffffffffffffffffffff1681526020019081526020016000206000828254610e199190611893565b925050819055508273ffffffffffffffffffffffffffffffffffffffff168473ffffffffffffffffffffffffffffffffffffffff167fddf252ad1be2c89b69c2b068fc378daa952ba7f163c4a11628f55a4df523b3ef84604051610e7d9190611841565b60405180910390a3610e90848484610fcb565b50505050565b6000600560009054906101000a900473ffffffffffffffffffffffffffffffffffffffff16905081600560006101000a81548173ffffffffffffffffffffffffffffffffffffffff021916908373ffffffffffffffffffffffffffffffffffffffff1602179055508173ffffffffffffffffffffffffffffffffffffffff168173ffffffffffffffffffffffffffffffffffffffff167f8be0079c531659141344cd1fd0a4f28419497f9722a3daafe3b4186f6b6457e060405160405180910390a35050565b610f64610442565b81610f6d610400565b610f779190611893565b1115610fb8576040517f08c379a0000000000000000000000000000000000000000000000000000000008152600401610faf906117c1565b60405180910390fd5b610fc28282610fd0565b5050565b505050565b505050565b600073ffffffffffffffffffffffffffffffffffffffff168273ffffffffffffffffffffffffffffffffffffffff161415611040576040517f08c379a000000000000000000000000000000000000000000000000000000000815260040161103790611821565b60405180910390fd5b61104c60008383610fc6565b806002600082825461105e9190611893565b92505081905550806000808473ffffffffffffffffffffffffffffffffffffffff1673ffffffffffffffffffffffffffffffffffffffff16815260200190815260200160002060008282546110b39190611893565b925050819055508173ffffffffffffffffffffffffffffffffffffffff16600073ffffffffffffffffffffffffffffffffffffffff167fddf252ad1be2c89b69c2b068fc378daa952ba7f163c4a11628f55a4df523b3ef836040516111189190611841565b60405180910390a361112c60008383610fcb565b5050565b60008135905061113f81611a12565b92915050565b60008135905061115481611a29565b92915050565b60006020828403121561116c57600080fd5b600061117a84828501611130565b91505092915050565b6000806040838503121561119657600080fd5b60006111a485828601611130565b92505060206111b585828601611130565b9150509250929050565b6000806000606084860312156111d457600080fd5b60006111e286828701611130565b93505060206111f386828701611130565b925050604061120486828701611145565b9150509250925092565b6000806040838503121561122157600080fd5b600061122f85828601611130565b925050602061124085828601611145565b9150509250929050565b611253816118e9565b82525050565b611262816118fb565b82525050565b600061127382611877565b61127d8185611882565b935061128d81856020860161193e565b61129681611a01565b840191505092915050565b60006112ae602383611882565b91507f45524332303a207472616e7366657220746f20746865207a65726f206164647260008301527f65737300000000000000000000000000000000000000000000000000000000006020830152604082019050919050565b6000611314602683611882565b91507f4f776e61626c653a206e6577206f776e657220697320746865207a65726f206160008301527f64647265737300000000000000000000000000000000000000000000000000006020830152604082019050919050565b600061137a602283611882565b91507f45524332303a20617070726f766520746f20746865207a65726f20616464726560008301527f73730000000000000000000000000000000000000000000000000000000000006020830152604082019050919050565b60006113e0601d83611882565b91507f45524332303a20696e73756666696369656e7420616c6c6f77616e63650000006000830152602082019050919050565b6000611420602683611882565b91507f45524332303a207472616e7366657220616d6f756e742065786365656473206260008301527f616c616e636500000000000000000000000000000000000000000000000000006020830152604082019050919050565b6000611486602083611882565b91507f4f776e61626c653a2063616c6c6572206973206e6f7420746865206f776e65726000830152602082019050919050565b60006114c6602583611882565b91507f45524332303a207472616e736665722066726f6d20746865207a65726f20616460008301527f64726573730000000000000000000000000000000000000000000000000000006020830152604082019050919050565b600061152c601983611882565b91507f45524332304361707065643a20636170206578636565646564000000000000006000830152602082019050919050565b600061156c602483611882565b91507f45524332303a20617070726f76652066726f6d20746865207a65726f2061646460008301527f72657373000000000000000000000000000000000000000000000000000000006020830152604082019050919050565b60006115d2602583611882565b91507f45524332303a2064656372656173656420616c6c6f77616e63652062656c6f7760008301527f207a65726f0000000000000000000000000000000000000000000000000000006020830152604082019050919050565b6000611638601f83611882565b91507f45524332303a206d696e7420746f20746865207a65726f2061646472657373006000830152602082019050919050565b61167481611927565b82525050565b61168381611931565b82525050565b600060208201905061169e600083018461124a565b92915050565b60006020820190506116b96000830184611259565b92915050565b600060208201905081810360008301526116d98184611268565b905092915050565b600060208201905081810360008301526116fa816112a1565b9050919050565b6000602082019050818103600083015261171a81611307565b9050919050565b6000602082019050818103600083015261173a8161136d565b9050919050565b6000602082019050818103600083015261175a816113d3565b9050919050565b6000602082019050818103600083015261177a81611413565b9050919050565b6000602082019050818103600083015261179a81611479565b9050919050565b600060208201905081810360008301526117ba816114b9565b9050919050565b600060208201905081810360008301526117da8161151f565b9050919050565b600060208201905081810360008301526117fa8161155f565b9050919050565b6000602082019050818103600083015261181a816115c5565b9050919050565b6000602082019050818103600083015261183a8161162b565b9050919050565b6000602082019050611856600083018461166b565b92915050565b6000602082019050611871600083018461167a565b92915050565b600081519050919050565b600082825260208201905092915050565b600061189e82611927565b91506118a983611927565b9250827fffffffffffffffffffffffffffffffffffffffffffffffffffffffffffffffff038211156118de576118dd6119a3565b5b828201905092915050565b60006118f482611907565b9050919050565b60008115159050919050565b600073ffffffffffffffffffffffffffffffffffffffff82169050919050565b6000819050919050565b600060ff82169050919050565b60005b8381101561195c578082015181840152602081019050611941565b8381111561196b576000848401525b50505050565b6000600282049050600182168061198957607f821691505b6020821081141561199d5761199c6119d2565b5b50919050565b7f4e487b7100000000000000000000000000000000000000000000000000000000600052601160045260246000fd5b7f4e487b7100000000000000000000000000000000000000000000000000000000600052602260045260246000fd5b6000601f19601f8301169050919050565b611a1b816118e9565b8114611a2657600080fd5b50565b611a3281611927565b8114611a3d57600080fd5b5056fea2646970667358221220dbd0d04638b1f2fb95b6753463bd97a88df7ca8ca53354b8d97e9e28ebbec06764736f6c63430008000033",
  "immutableReferences": {
    "866": [
      {
        "length": 32,
        "start": 1094
      }
    ]
  },
  "source": "pragma solidity ^0.8.0; // best to use the same version of contract we are inheriting from\r\n\r\n// this token is an ERC20 token with a max supply and ownable functionality\r\n\r\n//imports from the node_modules folder the erc20capped contract\r\nimport \"../node_modules/@openzeppelin/contracts/token/ERC20/extensions/ERC20Capped.sol\";\r\nimport \"../node_modules/@openzeppelin/contracts/access/Ownable.sol\";\r\n\r\n/*\r\n    This is the constructor in the ERC20.sol openzeppelin contrtact;\r\n    constructor(string memory name_, string memory symbol_) {\r\n        _name = name_;\r\n        _symbol = symbol_;\r\n    }\r\n\r\n    constructor for the ERC20Capped.sol\r\n    constructor(uint256 cap_) {\r\n        require(cap_ > 0, \"ERC20Capped: cap is 0\");\r\n        _cap = cap_;\r\n    }\r\n\r\n    hence, we also need to make such a constructor in our inherited contract\r\n    i.e. in MyToken too\r\n    after deploying, we can use all the functions from the ERC20.sol file\r\n    such as symbol, balanceOf,totalSupply, etc...\r\n\r\n    Note: if we look into the ERC20Capped.sol file, we will see that ERC20Capped is ERC20;\r\n    meaning that ERC20Capped inherited ERC20; hence, we don't need to inherit ERC20 again.\r\n    Instead, we just inherit ERC20Capped and we will have all functionalities of ERC20Capped & ERC20\r\n    But, we wil lalso have to do both constructors\r\n\r\n    Note: we don't have to put ownable in the constructor because in the code for Ownable.sol,\r\n    there is no params in the constructor for it. \r\n\r\n    Now, instead of just having an ERC20 (MyToken) we now an ERC20 (MyTokenCapped) \r\n    which has a max supply and ownable functionality\r\n\r\n    The ownable.sol contract gives access to onlyOwner modifier and also ensures that\r\n    the deployer of the contract (accounts[0] in this case) is the \"owner\" of the contract\r\n\r\n*/\r\n\r\ncontract MyTokenCapped is ERC20Capped, Ownable {\r\n    constructor() ERC20(\"MyTokenCapped\", \"MTKC\") ERC20Capped(10000) {\r\n        // note: we removed the mint function because of an error it is causing from ERC20Capped.sol\r\n    }\r\n\r\n    // we have to manually create a public mint function because the _mint function\r\n    // in ERC20 contract from openzeppelin is internal; meaning we can't just call instance._mint\r\n    // on the contract; hence we make a function mintTokens so that we can interact with the _mint function\r\n    // since internal functions can only be accessed by the contract which inherited it; or within the own contract\r\n    // we also use the onlyOwner modifier which is from the Ownable.sol\r\n    function mintTokens(address _address, uint256 _amount) public onlyOwner {\r\n        _mint(_address, _amount);\r\n    }\r\n}\r\n",
  "sourcePath": "C:\\Users\\Denli\\Desktop\\CodeGod\\Solidity\\Moralis\\Eth Smart Contract Programming 201\\OpenzeppelinERC20\\contracts\\MyTokenCapped.sol",
  "compiler": {
    "name": "solc",
    "version": "0.8.0+commit.c7dfd78e.Emscripten.clang"
  },
  "schemaVersion": "3.4.3",
  "updatedAt": "2022-03-31T04:02:09.162Z",
  "networkType": "ethereum",
  "devdoc": {
    "kind": "dev",
    "methods": {
      "allowance(address,address)": {
        "details": "See {IERC20-allowance}."
      },
      "approve(address,uint256)": {
        "details": "See {IERC20-approve}. NOTE: If `amount` is the maximum `uint256`, the allowance is not updated on `transferFrom`. This is semantically equivalent to an infinite approval. Requirements: - `spender` cannot be the zero address."
      },
      "balanceOf(address)": {
        "details": "See {IERC20-balanceOf}."
      },
      "cap()": {
        "details": "Returns the cap on the token's total supply."
      },
      "decimals()": {
        "details": "Returns the number of decimals used to get its user representation. For example, if `decimals` equals `2`, a balance of `505` tokens should be displayed to a user as `5.05` (`505 / 10 ** 2`). Tokens usually opt for a value of 18, imitating the relationship between Ether and Wei. This is the value {ERC20} uses, unless this function is overridden; NOTE: This information is only used for _display_ purposes: it in no way affects any of the arithmetic of the contract, including {IERC20-balanceOf} and {IERC20-transfer}."
      },
      "decreaseAllowance(address,uint256)": {
        "details": "Atomically decreases the allowance granted to `spender` by the caller. This is an alternative to {approve} that can be used as a mitigation for problems described in {IERC20-approve}. Emits an {Approval} event indicating the updated allowance. Requirements: - `spender` cannot be the zero address. - `spender` must have allowance for the caller of at least `subtractedValue`."
      },
      "increaseAllowance(address,uint256)": {
        "details": "Atomically increases the allowance granted to `spender` by the caller. This is an alternative to {approve} that can be used as a mitigation for problems described in {IERC20-approve}. Emits an {Approval} event indicating the updated allowance. Requirements: - `spender` cannot be the zero address."
      },
      "name()": {
        "details": "Returns the name of the token."
      },
      "owner()": {
        "details": "Returns the address of the current owner."
      },
      "renounceOwnership()": {
        "details": "Leaves the contract without owner. It will not be possible to call `onlyOwner` functions anymore. Can only be called by the current owner. NOTE: Renouncing ownership will leave the contract without an owner, thereby removing any functionality that is only available to the owner."
      },
      "symbol()": {
        "details": "Returns the symbol of the token, usually a shorter version of the name."
      },
      "totalSupply()": {
        "details": "See {IERC20-totalSupply}."
      },
      "transfer(address,uint256)": {
        "details": "See {IERC20-transfer}. Requirements: - `to` cannot be the zero address. - the caller must have a balance of at least `amount`."
      },
      "transferFrom(address,address,uint256)": {
        "details": "See {IERC20-transferFrom}. Emits an {Approval} event indicating the updated allowance. This is not required by the EIP. See the note at the beginning of {ERC20}. NOTE: Does not update the allowance if the current allowance is the maximum `uint256`. Requirements: - `from` and `to` cannot be the zero address. - `from` must have a balance of at least `amount`. - the caller must have allowance for ``from``'s tokens of at least `amount`."
      },
      "transferOwnership(address)": {
        "details": "Transfers ownership of the contract to a new account (`newOwner`). Can only be called by the current owner."
      }
    },
    "version": 1
  },
  "userdoc": {
    "kind": "user",
    "methods": {},
    "version": 1
  }
}